{
  "_format": "hh-sol-artifact-1",
  "contractName": "Escrow",
  "sourceName": "contracts/Escrow.sol",
  "abi": [
    {
      "inputs": [],
      "stateMutability": "nonpayable",
      "type": "constructor"
    },
    {
      "anonymous": false,
      "inputs": [
        {
          "indexed": true,
          "internalType": "address",
          "name": "seller",
          "type": "address"
        },
        {
          "indexed": true,
          "internalType": "uint256",
          "name": "gotchi",
          "type": "uint256"
        }
      ],
      "name": "abortSale",
      "type": "event"
    },
    {
      "anonymous": false,
      "inputs": [
        {
          "indexed": true,
          "internalType": "address",
          "name": "buyer",
          "type": "address"
        },
        {
          "indexed": true,
          "internalType": "uint256",
          "name": "gotchi",
          "type": "uint256"
        }
      ],
      "name": "concludeSale",
      "type": "event"
    },
    {
      "anonymous": false,
      "inputs": [
        {
          "indexed": true,
          "internalType": "address",
          "name": "seller",
          "type": "address"
        },
        {
          "indexed": true,
          "internalType": "uint256",
          "name": "gotchi",
          "type": "uint256"
        }
      ],
      "name": "newSale",
      "type": "event"
    },
    {
      "inputs": [
        {
          "internalType": "uint256",
          "name": "_index",
          "type": "uint256"
        }
      ],
      "name": "abortGotchiSale",
      "outputs": [],
      "stateMutability": "nonpayable",
      "type": "function"
    },
    {
      "inputs": [],
      "name": "admin",
      "outputs": [
        {
          "internalType": "address",
          "name": "",
          "type": "address"
        }
      ],
      "stateMutability": "view",
      "type": "function"
    },
    {
      "inputs": [
        {
          "internalType": "uint256",
          "name": "_index",
          "type": "uint256"
        }
      ],
      "name": "buyGotchi",
      "outputs": [],
      "stateMutability": "nonpayable",
      "type": "function"
    },
    {
      "inputs": [
        {
          "internalType": "address",
          "name": "_admin",
          "type": "address"
        }
      ],
      "name": "changeAdmin",
      "outputs": [],
      "stateMutability": "nonpayable",
      "type": "function"
    },
    {
      "inputs": [
        {
          "internalType": "address",
          "name": "_buyer",
          "type": "address"
        }
      ],
      "name": "getBuyerSalesCount",
      "outputs": [
        {
          "internalType": "uint256",
          "name": "",
          "type": "uint256"
        }
      ],
      "stateMutability": "view",
      "type": "function"
    },
    {
      "inputs": [
        {
          "internalType": "address",
          "name": "_buyer",
          "type": "address"
        },
        {
          "internalType": "uint256",
          "name": "_index",
          "type": "uint256"
        }
      ],
      "name": "getOffer",
      "outputs": [
        {
          "internalType": "address",
          "name": "",
          "type": "address"
        },
        {
          "internalType": "uint256",
          "name": "",
          "type": "uint256"
        }
      ],
      "stateMutability": "view",
      "type": "function"
    },
    {
      "inputs": [
        {
          "internalType": "address",
          "name": "_seller",
          "type": "address"
        },
        {
          "internalType": "uint256",
          "name": "_index",
          "type": "uint256"
        }
      ],
      "name": "getSale",
      "outputs": [
        {
          "internalType": "uint256",
          "name": "",
          "type": "uint256"
        },
        {
          "internalType": "uint256",
          "name": "",
          "type": "uint256"
        },
        {
          "internalType": "uint256",
          "name": "",
          "type": "uint256"
        },
        {
          "internalType": "address",
          "name": "",
          "type": "address"
        }
      ],
      "stateMutability": "view",
      "type": "function"
    },
    {
      "inputs": [],
      "name": "getSaleId",
      "outputs": [
        {
          "internalType": "uint256",
          "name": "",
          "type": "uint256"
        }
      ],
      "stateMutability": "nonpayable",
      "type": "function"
    },
    {
      "inputs": [
        {
          "internalType": "address",
          "name": "_seller",
          "type": "address"
        },
        {
          "internalType": "uint256",
          "name": "_id",
          "type": "uint256"
        }
      ],
      "name": "getSaleIndex",
      "outputs": [
        {
          "internalType": "uint256",
          "name": "",
          "type": "uint256"
        }
      ],
      "stateMutability": "view",
      "type": "function"
    },
    {
      "inputs": [
        {
          "internalType": "address",
          "name": "_seller",
          "type": "address"
        }
      ],
      "name": "getSellerSalesCount",
      "outputs": [
        {
          "internalType": "uint256",
          "name": "",
          "type": "uint256"
        }
      ],
      "stateMutability": "view",
      "type": "function"
    },
    {
      "inputs": [],
      "name": "gotchiAddress",
      "outputs": [
        {
          "internalType": "address",
          "name": "",
          "type": "address"
        }
      ],
      "stateMutability": "view",
      "type": "function"
    },
    {
      "inputs": [
        {
          "internalType": "address",
          "name": "",
          "type": "address"
        },
        {
          "internalType": "address",
          "name": "",
          "type": "address"
        },
        {
          "internalType": "uint256",
          "name": "",
          "type": "uint256"
        },
        {
          "internalType": "bytes",
          "name": "",
          "type": "bytes"
        }
      ],
      "name": "onERC721Received",
      "outputs": [
        {
          "internalType": "bytes4",
          "name": "",
          "type": "bytes4"
        }
      ],
      "stateMutability": "pure",
      "type": "function"
    },
    {
      "inputs": [],
      "name": "saleId",
      "outputs": [
        {
          "internalType": "uint256",
          "name": "",
          "type": "uint256"
        }
      ],
      "stateMutability": "view",
      "type": "function"
    },
    {
      "inputs": [
        {
          "internalType": "uint256",
          "name": "_gotchi",
          "type": "uint256"
        },
        {
          "internalType": "uint256",
          "name": "_price",
          "type": "uint256"
        },
        {
          "internalType": "address",
          "name": "_buyer",
          "type": "address"
        }
      ],
      "name": "sellGotchi",
      "outputs": [],
      "stateMutability": "nonpayable",
      "type": "function"
    },
    {
      "inputs": [],
      "name": "tokenAddress",
      "outputs": [
        {
          "internalType": "address",
          "name": "",
          "type": "address"
        }
      ],
      "stateMutability": "view",
      "type": "function"
    },
    {
      "inputs": [
        {
          "internalType": "uint256",
          "name": "_tokenId",
          "type": "uint256"
        }
      ],
      "name": "withdrawERC721",
      "outputs": [],
      "stateMutability": "nonpayable",
      "type": "function"
    },
    {
      "inputs": [],
      "name": "withdrawGHST",
      "outputs": [],
      "stateMutability": "nonpayable",
      "type": "function"
    }
  ],
  "bytecode": "0x60806040527307543db60f19b9b48a69a7435b5648b46d4bb58e6000806101000a81548173ffffffffffffffffffffffffffffffffffffffff021916908373ffffffffffffffffffffffffffffffffffffffff16021790555073edaa788ee96a0749a2de48738f5df0aa88e99ab5600160006101000a81548173ffffffffffffffffffffffffffffffffffffffff021916908373ffffffffffffffffffffffffffffffffffffffff16021790555060008054906101000a900473ffffffffffffffffffffffffffffffffffffffff16600260006101000a81548173ffffffffffffffffffffffffffffffffffffffff021916908373ffffffffffffffffffffffffffffffffffffffff160217905550600160009054906101000a900473ffffffffffffffffffffffffffffffffffffffff16600360006101000a81548173ffffffffffffffffffffffffffffffffffffffff021916908373ffffffffffffffffffffffffffffffffffffffff16021790555073fec36843fcadcbb13b7b14ab12403d45df6dec4e600660006101000a81548173ffffffffffffffffffffffffffffffffffffffff021916908373ffffffffffffffffffffffffffffffffffffffff1602179055503480156101d257600080fd5b50612c26806101e26000396000f3fe608060405234801561001057600080fd5b506004361061010b5760003560e01c8063a0d4640f116100a2578063db2b2cbf11610071578063db2b2cbf146102aa578063e1041af5146102da578063e78e20ab146102f6578063eaa7e8b514610326578063f851a440146103425761010b565b8063a0d4640f14610233578063ac71045e14610251578063b8fbaf0614610282578063c84c03871461028c5761010b565b806358745d0e116100de57806358745d0e146101ab5780635aa1f2ac146101c95780638f283970146101f95780639d76ea58146102155761010b565b8063150b7a0214610110578063225c3131146101405780633de8767a146101735780634b6f55061461018f575b600080fd5b61012a600480360381019061012591906120fc565b610360565b6040516101379190612576565b60405180910390f35b61015a6004803603810190610155919061217c565b61038e565b60405161016a949392919061270e565b60405180910390f35b61018d600480360381019061018891906121e1565b6104ab565b005b6101a960048036038101906101a491906121e1565b610663565b005b6101b36109d2565b6040516101c091906126f3565b60405180910390f35b6101e360048036038101906101de91906120d3565b6109f0565b6040516101f091906126f3565b60405180910390f35b610213600480360381019061020e91906120d3565b610a84565b005b61021d610b22565b60405161022a91906124b1565b60405180910390f35b61023b610b48565b60405161024891906124b1565b60405180910390f35b61026b6004803603810190610266919061217c565b610b6c565b60405161027992919061254d565b60405180910390f35b61028a610c76565b005b610294610dcc565b6040516102a191906126f3565b60405180910390f35b6102c460048036038101906102bf919061217c565b610dd2565b6040516102d191906126f3565b60405180910390f35b6102f460048036038101906102ef91906121e1565b610ed8565b005b610310600480360381019061030b91906120d3565b610fe8565b60405161031d91906126f3565b60405180910390f35b610340600480360381019061033b9190612233565b61107c565b005b61034a6111a5565b60405161035791906124b1565b60405180910390f35b60007f150b7a023d4804d13e8c85fb27262cb750cf6ba9f9dd3bb30d90f482ceeb4b1f905095945050505050565b60008060008061039d866111cb565b6103dc576040517f08c379a00000000000000000000000000000000000000000000000000000000081526004016103d390612633565b60405180910390fd5b6000600460008873ffffffffffffffffffffffffffffffffffffffff1673ffffffffffffffffffffffffffffffffffffffff1681526020019081526020016000208681548110610455577f4e487b7100000000000000000000000000000000000000000000000000000000600052603260045260246000fd5b906000526020600020906004020190508060000154816001015482600201548360030160009054906101000a900473ffffffffffffffffffffffffffffffffffffffff1694509450945094505092959194509250565b6104b4336111cb565b6104f3576040517f08c379a00000000000000000000000000000000000000000000000000000000081526004016104ea906125f3565b60405180910390fd5b6000600460003373ffffffffffffffffffffffffffffffffffffffff1673ffffffffffffffffffffffffffffffffffffffff168152602001908152602001600020828154811061056c577f4e487b7100000000000000000000000000000000000000000000000000000000600052603260045260246000fd5b906000526020600020906004020160010154905061058a338361122a565b600260009054906101000a900473ffffffffffffffffffffffffffffffffffffffff1673ffffffffffffffffffffffffffffffffffffffff1663b88d4fde3033846040518463ffffffff1660e01b81526004016105e993929190612503565b600060405180830381600087803b15801561060357600080fd5b505af1158015610617573d6000803e3d6000fd5b50505050803373ffffffffffffffffffffffffffffffffffffffff167febd938d332ee672dbea8121c0b976ab05839d659cda7c3d25ac9e8a0017cc42760405160405180910390a35050565b61066c33611ae1565b6106ab576040517f08c379a00000000000000000000000000000000000000000000000000000000081526004016106a2906126d3565b60405180910390fd5b6000600560003373ffffffffffffffffffffffffffffffffffffffff1673ffffffffffffffffffffffffffffffffffffffff1681526020019081526020016000208281548110610724577f4e487b7100000000000000000000000000000000000000000000000000000000600052603260045260246000fd5b906000526020600020906002020160000160009054906101000a900473ffffffffffffffffffffffffffffffffffffffff1690506000600560003373ffffffffffffffffffffffffffffffffffffffff1673ffffffffffffffffffffffffffffffffffffffff16815260200190815260200160002083815481106107d1577f4e487b7100000000000000000000000000000000000000000000000000000000600052603260045260246000fd5b906000526020600020906002020160010154905060006107f18383610dd2565b90506000600460008573ffffffffffffffffffffffffffffffffffffffff1673ffffffffffffffffffffffffffffffffffffffff168152602001908152602001600020828154811061086c577f4e487b7100000000000000000000000000000000000000000000000000000000600052603260045260246000fd5b90600052602060002090600402019050600081600101549050600082600201549050610898868561122a565b6108c6600360009054906101000a900473ffffffffffffffffffffffffffffffffffffffff16333084611b40565b600260009054906101000a900473ffffffffffffffffffffffffffffffffffffffff1673ffffffffffffffffffffffffffffffffffffffff1663b88d4fde3033856040518463ffffffff1660e01b815260040161092593929190612503565b600060405180830381600087803b15801561093f57600080fd5b505af1158015610953573d6000803e3d6000fd5b50505050610985600360009054906101000a900473ffffffffffffffffffffffffffffffffffffffff16308884611b40565b813373ffffffffffffffffffffffffffffffffffffffff167f78e86c7ff6d6feb266d79ba431bb0e2c65d125b8cca1addbeb69dc19a5fe814160405160405180910390a350505050505050565b6000600760008154809291906109e7906128c7565b91905055905090565b60006109fb82611ae1565b610a3a576040517f08c379a0000000000000000000000000000000000000000000000000000000008152600401610a3190612653565b60405180910390fd5b600560008373ffffffffffffffffffffffffffffffffffffffff1673ffffffffffffffffffffffffffffffffffffffff168152602001908152602001600020805490509050919050565b600660009054906101000a900473ffffffffffffffffffffffffffffffffffffffff1673ffffffffffffffffffffffffffffffffffffffff163373ffffffffffffffffffffffffffffffffffffffff1614610ade57600080fd5b80600660006101000a81548173ffffffffffffffffffffffffffffffffffffffff021916908373ffffffffffffffffffffffffffffffffffffffff16021790555050565b600160009054906101000a900473ffffffffffffffffffffffffffffffffffffffff1681565b60008054906101000a900473ffffffffffffffffffffffffffffffffffffffff1681565b600080610b7884611ae1565b610bb7576040517f08c379a0000000000000000000000000000000000000000000000000000000008152600401610bae906125d3565b60405180910390fd5b6000600560008673ffffffffffffffffffffffffffffffffffffffff1673ffffffffffffffffffffffffffffffffffffffff1681526020019081526020016000208481548110610c30577f4e487b7100000000000000000000000000000000000000000000000000000000600052603260045260246000fd5b906000526020600020906002020190508060000160009054906101000a900473ffffffffffffffffffffffffffffffffffffffff16816001015492509250509250929050565b600660009054906101000a900473ffffffffffffffffffffffffffffffffffffffff1673ffffffffffffffffffffffffffffffffffffffff163373ffffffffffffffffffffffffffffffffffffffff1614610cd057600080fd5b610dca600360009054906101000a900473ffffffffffffffffffffffffffffffffffffffff1630600660009054906101000a900473ffffffffffffffffffffffffffffffffffffffff16600360009054906101000a900473ffffffffffffffffffffffffffffffffffffffff1673ffffffffffffffffffffffffffffffffffffffff166370a08231306040518263ffffffff1660e01b8152600401610d7591906124b1565b60206040518083038186803b158015610d8d57600080fd5b505afa158015610da1573d6000803e3d6000fd5b505050506040513d601f19601f82011682018060405250810190610dc5919061220a565b611b40565b565b60075481565b600080600090505b600460008573ffffffffffffffffffffffffffffffffffffffff1673ffffffffffffffffffffffffffffffffffffffff16815260200190815260200160002080549050811015610ed05782600460008673ffffffffffffffffffffffffffffffffffffffff1673ffffffffffffffffffffffffffffffffffffffff1681526020019081526020016000208281548110610e9c577f4e487b7100000000000000000000000000000000000000000000000000000000600052603260045260246000fd5b9060005260206000209060040201600001541415610ebd5780915050610ed2565b8080610ec8906128c7565b915050610dda565b505b92915050565b600660009054906101000a900473ffffffffffffffffffffffffffffffffffffffff1673ffffffffffffffffffffffffffffffffffffffff163373ffffffffffffffffffffffffffffffffffffffff1614610f3257600080fd5b600260009054906101000a900473ffffffffffffffffffffffffffffffffffffffff1673ffffffffffffffffffffffffffffffffffffffff1663b88d4fde30600660009054906101000a900473ffffffffffffffffffffffffffffffffffffffff16846040518463ffffffff1660e01b8152600401610fb393929190612503565b600060405180830381600087803b158015610fcd57600080fd5b505af1158015610fe1573d6000803e3d6000fd5b5050505050565b6000610ff3826111cb565b611032576040517f08c379a000000000000000000000000000000000000000000000000000000000815260040161102990612653565b60405180910390fd5b600460008373ffffffffffffffffffffffffffffffffffffffff1673ffffffffffffffffffffffffffffffffffffffff168152602001908152602001600020805490509050919050565b600082116110bf576040517f08c379a00000000000000000000000000000000000000000000000000000000081526004016110b690612673565b60405180910390fd5b600260009054906101000a900473ffffffffffffffffffffffffffffffffffffffff1673ffffffffffffffffffffffffffffffffffffffff1663b88d4fde3330866040518463ffffffff1660e01b815260040161111e93929190612503565b600060405180830381600087803b15801561113857600080fd5b505af115801561114c573d6000803e3d6000fd5b5050505061115c33848484611bc9565b823373ffffffffffffffffffffffffffffffffffffffff167f180d3fbba44c623935f6f1ed09a5e5df48457d831468d73631bc2c934fa2785a60405160405180910390a3505050565b600660009054906101000a900473ffffffffffffffffffffffffffffffffffffffff1681565b600080600460008473ffffffffffffffffffffffffffffffffffffffff1673ffffffffffffffffffffffffffffffffffffffff1681526020019081526020016000208054905011156112205760019050611225565b600090505b919050565b611233826111cb565b611272576040517f08c379a0000000000000000000000000000000000000000000000000000000008152600401611269906125b3565b60405180910390fd5b6000600460008473ffffffffffffffffffffffffffffffffffffffff1673ffffffffffffffffffffffffffffffffffffffff16815260200190815260200160002082815481106112eb577f4e487b7100000000000000000000000000000000000000000000000000000000600052603260045260246000fd5b906000526020600020906004020160030160009054906101000a900473ffffffffffffffffffffffffffffffffffffffff1690506000600460008573ffffffffffffffffffffffffffffffffffffffff1673ffffffffffffffffffffffffffffffffffffffff1681526020019081526020016000208381548110611398577f4e487b7100000000000000000000000000000000000000000000000000000000600052603260045260246000fd5b90600052602060002090600402016000015490506000600560008473ffffffffffffffffffffffffffffffffffffffff1673ffffffffffffffffffffffffffffffffffffffff16815260200190815260200160002080549050905060005b818110156117f8578573ffffffffffffffffffffffffffffffffffffffff16600560008673ffffffffffffffffffffffffffffffffffffffff1673ffffffffffffffffffffffffffffffffffffffff168152602001908152602001600020828154811061148c577f4e487b7100000000000000000000000000000000000000000000000000000000600052603260045260246000fd5b906000526020600020906002020160000160009054906101000a900473ffffffffffffffffffffffffffffffffffffffff1673ffffffffffffffffffffffffffffffffffffffff1614156117e55782600560008673ffffffffffffffffffffffffffffffffffffffff1673ffffffffffffffffffffffffffffffffffffffff1681526020019081526020016000208281548110611552577f4e487b7100000000000000000000000000000000000000000000000000000000600052603260045260246000fd5b90600052602060002090600202016001015414156117e45760008190505b60018361157d91906127ec565b81101561172157600560008673ffffffffffffffffffffffffffffffffffffffff1673ffffffffffffffffffffffffffffffffffffffff1681526020019081526020016000206001826115d09190612796565b81548110611607577f4e487b7100000000000000000000000000000000000000000000000000000000600052603260045260246000fd5b9060005260206000209060020201600560008773ffffffffffffffffffffffffffffffffffffffff1673ffffffffffffffffffffffffffffffffffffffff168152602001908152602001600020828154811061168c577f4e487b7100000000000000000000000000000000000000000000000000000000600052603260045260246000fd5b90600052602060002090600202016000820160009054906101000a900473ffffffffffffffffffffffffffffffffffffffff168160000160006101000a81548173ffffffffffffffffffffffffffffffffffffffff021916908373ffffffffffffffffffffffffffffffffffffffff160217905550600182015481600101559050508080611719906128c7565b915050611570565b50600560008573ffffffffffffffffffffffffffffffffffffffff1673ffffffffffffffffffffffffffffffffffffffff168152602001908152602001600020805480611797577f4e487b7100000000000000000000000000000000000000000000000000000000600052603160045260246000fd5b6001900381819060005260206000209060020201600080820160006101000a81549073ffffffffffffffffffffffffffffffffffffffff02191690556001820160009055505090556117f8565b5b80806117f0906128c7565b9150506113f6565b506000600460008773ffffffffffffffffffffffffffffffffffffffff1673ffffffffffffffffffffffffffffffffffffffff16815260200190815260200160002080549050905060008590505b60018261185391906127ec565b811015611a0b57600460008873ffffffffffffffffffffffffffffffffffffffff1673ffffffffffffffffffffffffffffffffffffffff1681526020019081526020016000206001826118a69190612796565b815481106118dd577f4e487b7100000000000000000000000000000000000000000000000000000000600052603260045260246000fd5b9060005260206000209060040201600460008973ffffffffffffffffffffffffffffffffffffffff1673ffffffffffffffffffffffffffffffffffffffff1681526020019081526020016000208281548110611962577f4e487b7100000000000000000000000000000000000000000000000000000000600052603260045260246000fd5b90600052602060002090600402016000820154816000015560018201548160010155600282015481600201556003820160009054906101000a900473ffffffffffffffffffffffffffffffffffffffff168160030160006101000a81548173ffffffffffffffffffffffffffffffffffffffff021916908373ffffffffffffffffffffffffffffffffffffffff1602179055509050508080611a03906128c7565b915050611846565b50600460008773ffffffffffffffffffffffffffffffffffffffff1673ffffffffffffffffffffffffffffffffffffffff168152602001908152602001600020805480611a81577f4e487b7100000000000000000000000000000000000000000000000000000000600052603160045260246000fd5b6001900381819060005260206000209060040201600080820160009055600182016000905560028201600090556003820160006101000a81549073ffffffffffffffffffffffffffffffffffffffff021916905550509055505050505050565b600080600560008473ffffffffffffffffffffffffffffffffffffffff1673ffffffffffffffffffffffffffffffffffffffff168152602001908152602001600020805490501115611b365760019050611b3b565b600090505b919050565b611bc3846323b872dd60e01b858585604051602401611b61939291906124cc565b604051602081830303815290604052907bffffffffffffffffffffffffffffffffffffffffffffffffffffffff19166020820180517bffffffffffffffffffffffffffffffffffffffffffffffffffffffff8381831617835250505050611dc8565b50505050565b6000611bd36109d2565b9050600460008673ffffffffffffffffffffffffffffffffffffffff1673ffffffffffffffffffffffffffffffffffffffff16815260200190815260200160002060405180608001604052808381526020018681526020018581526020018473ffffffffffffffffffffffffffffffffffffffff16815250908060018154018082558091505060019003906000526020600020906004020160009091909190915060008201518160000155602082015181600101556040820151816002015560608201518160030160006101000a81548173ffffffffffffffffffffffffffffffffffffffff021916908373ffffffffffffffffffffffffffffffffffffffff1602179055505050600560008373ffffffffffffffffffffffffffffffffffffffff1673ffffffffffffffffffffffffffffffffffffffff16815260200190815260200160002060405180604001604052808773ffffffffffffffffffffffffffffffffffffffff16815260200183815250908060018154018082558091505060019003906000526020600020906002020160009091909190915060008201518160000160006101000a81548173ffffffffffffffffffffffffffffffffffffffff021916908373ffffffffffffffffffffffffffffffffffffffff1602179055506020820151816001015550505050505050565b6000611e2a826040518060400160405280602081526020017f5361666545524332303a206c6f772d6c6576656c2063616c6c206661696c65648152508573ffffffffffffffffffffffffffffffffffffffff16611e8f9092919063ffffffff16565b9050600081511115611e8a5780806020019051810190611e4a91906121b8565b611e89576040517f08c379a0000000000000000000000000000000000000000000000000000000008152600401611e80906126b3565b60405180910390fd5b5b505050565b6060611e9e8484600085611ea7565b90509392505050565b606082471015611eec576040517f08c379a0000000000000000000000000000000000000000000000000000000008152600401611ee390612613565b60405180910390fd5b611ef585611fbb565b611f34576040517f08c379a0000000000000000000000000000000000000000000000000000000008152600401611f2b90612693565b60405180910390fd5b6000808673ffffffffffffffffffffffffffffffffffffffff168587604051611f5d919061249a565b60006040518083038185875af1925050503d8060008114611f9a576040519150601f19603f3d011682016040523d82523d6000602084013e611f9f565b606091505b5091509150611faf828286611fce565b92505050949350505050565b600080823b905060008111915050919050565b60608315611fde5782905061202e565b600083511115611ff15782518084602001fd5b816040517f08c379a00000000000000000000000000000000000000000000000000000000081526004016120259190612591565b60405180910390fd5b9392505050565b60008135905061204481612bab565b92915050565b60008151905061205981612bc2565b92915050565b60008083601f84011261207157600080fd5b8235905067ffffffffffffffff81111561208a57600080fd5b6020830191508360018202830111156120a257600080fd5b9250929050565b6000813590506120b881612bd9565b92915050565b6000815190506120cd81612bd9565b92915050565b6000602082840312156120e557600080fd5b60006120f384828501612035565b91505092915050565b60008060008060006080868803121561211457600080fd5b600061212288828901612035565b955050602061213388828901612035565b9450506040612144888289016120a9565b935050606086013567ffffffffffffffff81111561216157600080fd5b61216d8882890161205f565b92509250509295509295909350565b6000806040838503121561218f57600080fd5b600061219d85828601612035565b92505060206121ae858286016120a9565b9150509250929050565b6000602082840312156121ca57600080fd5b60006121d88482850161204a565b91505092915050565b6000602082840312156121f357600080fd5b6000612201848285016120a9565b91505092915050565b60006020828403121561221c57600080fd5b600061222a848285016120be565b91505092915050565b60008060006060848603121561224857600080fd5b6000612256868287016120a9565b9350506020612267868287016120a9565b925050604061227886828701612035565b9150509250925092565b61228b81612820565b82525050565b61229a8161283e565b82525050565b60006122ab82612753565b6122b5818561277a565b93506122c5818560208601612894565b80840191505092915050565b60006122dc8261275e565b6122e68185612785565b93506122f6818560208601612894565b6122ff8161293f565b840191505092915050565b6000612317602283612785565b915061232282612950565b604082019050919050565b600061233a602183612785565b91506123458261299f565b604082019050919050565b600061235d601c83612785565b9150612368826129ee565b602082019050919050565b6000612380602683612785565b915061238b82612a17565b604082019050919050565b60006123a3601f83612785565b91506123ae82612a66565b602082019050919050565b60006123c6600e83612785565b91506123d182612a8f565b602082019050919050565b60006123e9602d83612785565b91506123f482612ab8565b604082019050919050565b600061240c600083612769565b915061241782612b07565b600082019050919050565b600061242f601d83612785565b915061243a82612b0a565b602082019050919050565b6000612452602a83612785565b915061245d82612b33565b604082019050919050565b6000612475601b83612785565b915061248082612b82565b602082019050919050565b6124948161288a565b82525050565b60006124a682846122a0565b915081905092915050565b60006020820190506124c66000830184612282565b92915050565b60006060820190506124e16000830186612282565b6124ee6020830185612282565b6124fb604083018461248b565b949350505050565b60006080820190506125186000830186612282565b6125256020830185612282565b612532604083018461248b565b8181036060830152612543816123ff565b9050949350505050565b60006040820190506125626000830185612282565b61256f602083018461248b565b9392505050565b600060208201905061258b6000830184612291565b92915050565b600060208201905081810360008301526125ab81846122d1565b905092915050565b600060208201905081810360008301526125cc8161230a565b9050919050565b600060208201905081810360008301526125ec8161232d565b9050919050565b6000602082019050818103600083015261260c81612350565b9050919050565b6000602082019050818103600083015261262c81612373565b9050919050565b6000602082019050818103600083015261264c81612396565b9050919050565b6000602082019050818103600083015261266c816123b9565b9050919050565b6000602082019050818103600083015261268c816123dc565b9050919050565b600060208201905081810360008301526126ac81612422565b9050919050565b600060208201905081810360008301526126cc81612445565b9050919050565b600060208201905081810360008301526126ec81612468565b9050919050565b6000602082019050612708600083018461248b565b92915050565b6000608082019050612723600083018761248b565b612730602083018661248b565b61273d604083018561248b565b61274a6060830184612282565b95945050505050565b600081519050919050565b600081519050919050565b600082825260208201905092915050565b600081905092915050565b600082825260208201905092915050565b60006127a18261288a565b91506127ac8361288a565b9250827fffffffffffffffffffffffffffffffffffffffffffffffffffffffffffffffff038211156127e1576127e0612910565b5b828201905092915050565b60006127f78261288a565b91506128028361288a565b92508282101561281557612814612910565b5b828203905092915050565b600061282b8261286a565b9050919050565b60008115159050919050565b60007fffffffff0000000000000000000000000000000000000000000000000000000082169050919050565b600073ffffffffffffffffffffffffffffffffffffffff82169050919050565b6000819050919050565b60005b838110156128b2578082015181840152602081019050612897565b838111156128c1576000848401525b50505050565b60006128d28261288a565b91507fffffffffffffffffffffffffffffffffffffffffffffffffffffffffffffffff82141561290557612904612910565b5b600182019050919050565b7f4e487b7100000000000000000000000000000000000000000000000000000000600052601160045260246000fd5b6000601f19601f8301169050919050565b7f43616e6e6f742072656d6f76652073616c653a204e6f2073616c657320666f7560008201527f6e64000000000000000000000000000000000000000000000000000000000000602082015250565b7f43616e6e6f7420676574206f666665723a204e6f206f666665727320666f756e60008201527f6400000000000000000000000000000000000000000000000000000000000000602082015250565b7f43616e6e6f742061626f72743a204e6f2073616c657320666f756e6400000000600082015250565b7f416464726573733a20696e73756666696369656e742062616c616e636520666f60008201527f722063616c6c0000000000000000000000000000000000000000000000000000602082015250565b7f43616e6e6f74206765742073616c653a204e6f2073616c657320666f756e6400600082015250565b7f4e6f2073616c657320666f756e64000000000000000000000000000000000000600082015250565b7f43616e6e6f74206164642073616c653a205072696365206d757374206265206760008201527f726561746572207468616e203000000000000000000000000000000000000000602082015250565b50565b7f416464726573733a2063616c6c20746f206e6f6e2d636f6e7472616374000000600082015250565b7f5361666545524332303a204552433230206f7065726174696f6e20646964206e60008201527f6f74207375636365656400000000000000000000000000000000000000000000602082015250565b7f43616e6e6f74206275793a204e6f206f666665727320666f756e640000000000600082015250565b612bb481612820565b8114612bbf57600080fd5b50565b612bcb81612832565b8114612bd657600080fd5b50565b612be28161288a565b8114612bed57600080fd5b5056fea264697066735822122044fdc1ea50980574796aa3418d0248dda47bcc15b10159327b95df7e50ddd37364736f6c63430008040033",
  "linkReferences": {},
  "deployedLinkReferences": {}
}